{
  "address": "0x7Fa86c6BF08D05ab76E1076b129Ca681848fE775",
  "abi": [
    {
      "inputs": [
        {
          "internalType": "string",
          "name": "name",
          "type": "string"
        },
        {
          "internalType": "string",
          "name": "symbol",
          "type": "string"
        },
        {
          "internalType": "address",
          "name": "_endpoint",
          "type": "address"
        },
        {
          "internalType": "address",
          "name": "_delegate",
          "type": "address"
        }
      ],
      "stateMutability": "nonpayable",
      "type": "constructor"
    },
    {
      "inputs": [
        {
          "internalType": "address",
          "name": "target",
          "type": "address"
        }
      ],
      "name": "AddressEmptyCode",
      "type": "error"
    },
    {
      "inputs": [
        {
          "internalType": "address",
          "name": "account",
          "type": "address"
        }
      ],
      "name": "AddressInsufficientBalance",
      "type": "error"
    },
    {
      "inputs": [],
      "name": "ECDSAInvalidSignature",
      "type": "error"
    },
    {
      "inputs": [
        {
          "internalType": "uint256",
          "name": "length",
          "type": "uint256"
        }
      ],
      "name": "ECDSAInvalidSignatureLength",
      "type": "error"
    },
    {
      "inputs": [
        {
          "internalType": "bytes32",
          "name": "s",
          "type": "bytes32"
        }
      ],
      "name": "ECDSAInvalidSignatureS",
      "type": "error"
    },
    {
      "inputs": [
        {
          "internalType": "address",
          "name": "spender",
          "type": "address"
        },
        {
          "internalType": "uint256",
          "name": "allowance",
          "type": "uint256"
        },
        {
          "internalType": "uint256",
          "name": "needed",
          "type": "uint256"
        }
      ],
      "name": "ERC20InsufficientAllowance",
      "type": "error"
    },
    {
      "inputs": [
        {
          "internalType": "address",
          "name": "sender",
          "type": "address"
        },
        {
          "internalType": "uint256",
          "name": "balance",
          "type": "uint256"
        },
        {
          "internalType": "uint256",
          "name": "needed",
          "type": "uint256"
        }
      ],
      "name": "ERC20InsufficientBalance",
      "type": "error"
    },
    {
      "inputs": [
        {
          "internalType": "address",
          "name": "approver",
          "type": "address"
        }
      ],
      "name": "ERC20InvalidApprover",
      "type": "error"
    },
    {
      "inputs": [
        {
          "internalType": "address",
          "name": "receiver",
          "type": "address"
        }
      ],
      "name": "ERC20InvalidReceiver",
      "type": "error"
    },
    {
      "inputs": [
        {
          "internalType": "address",
          "name": "sender",
          "type": "address"
        }
      ],
      "name": "ERC20InvalidSender",
      "type": "error"
    },
    {
      "inputs": [
        {
          "internalType": "address",
          "name": "spender",
          "type": "address"
        }
      ],
      "name": "ERC20InvalidSpender",
      "type": "error"
    },
    {
      "inputs": [
        {
          "internalType": "uint256",
          "name": "deadline",
          "type": "uint256"
        }
      ],
      "name": "ERC2612ExpiredSignature",
      "type": "error"
    },
    {
      "inputs": [
        {
          "internalType": "address",
          "name": "signer",
          "type": "address"
        },
        {
          "internalType": "address",
          "name": "owner",
          "type": "address"
        }
      ],
      "name": "ERC2612InvalidSigner",
      "type": "error"
    },
    {
      "inputs": [],
      "name": "EnforcedPause",
      "type": "error"
    },
    {
      "inputs": [],
      "name": "ExpectedPause",
      "type": "error"
    },
    {
      "inputs": [],
      "name": "FailedInnerCall",
      "type": "error"
    },
    {
      "inputs": [
        {
          "internalType": "address",
          "name": "account",
          "type": "address"
        },
        {
          "internalType": "uint256",
          "name": "currentNonce",
          "type": "uint256"
        }
      ],
      "name": "InvalidAccountNonce",
      "type": "error"
    },
    {
      "inputs": [],
      "name": "InvalidDelegate",
      "type": "error"
    },
    {
      "inputs": [],
      "name": "InvalidEndpointCall",
      "type": "error"
    },
    {
      "inputs": [],
      "name": "InvalidShortString",
      "type": "error"
    },
    {
      "inputs": [],
      "name": "LzTokenUnavailable",
      "type": "error"
    },
    {
      "inputs": [
        {
          "internalType": "uint32",
          "name": "eid",
          "type": "uint32"
        }
      ],
      "name": "NoPeer",
      "type": "error"
    },
    {
      "inputs": [
        {
          "internalType": "uint256",
          "name": "msgValue",
          "type": "uint256"
        }
      ],
      "name": "NotEnoughNative",
      "type": "error"
    },
    {
      "inputs": [
        {
          "internalType": "address",
          "name": "addr",
          "type": "address"
        }
      ],
      "name": "OnlyEndpoint",
      "type": "error"
    },
    {
      "inputs": [
        {
          "internalType": "uint32",
          "name": "eid",
          "type": "uint32"
        },
        {
          "internalType": "bytes32",
          "name": "sender",
          "type": "bytes32"
        }
      ],
      "name": "OnlyPeer",
      "type": "error"
    },
    {
      "inputs": [
        {
          "internalType": "address",
          "name": "owner",
          "type": "address"
        }
      ],
      "name": "OwnableInvalidOwner",
      "type": "error"
    },
    {
      "inputs": [
        {
          "internalType": "address",
          "name": "account",
          "type": "address"
        }
      ],
      "name": "OwnableUnauthorizedAccount",
      "type": "error"
    },
    {
      "inputs": [
        {
          "internalType": "address",
          "name": "token",
          "type": "address"
        }
      ],
      "name": "SafeERC20FailedOperation",
      "type": "error"
    },
    {
      "inputs": [
        {
          "internalType": "string",
          "name": "str",
          "type": "string"
        }
      ],
      "name": "StringTooLong",
      "type": "error"
    },
    {
      "anonymous": false,
      "inputs": [
        {
          "indexed": true,
          "internalType": "address",
          "name": "owner",
          "type": "address"
        },
        {
          "indexed": true,
          "internalType": "address",
          "name": "spender",
          "type": "address"
        },
        {
          "indexed": false,
          "internalType": "uint256",
          "name": "value",
          "type": "uint256"
        }
      ],
      "name": "Approval",
      "type": "event"
    },
    {
      "anonymous": false,
      "inputs": [],
      "name": "EIP712DomainChanged",
      "type": "event"
    },
    {
      "anonymous": false,
      "inputs": [
        {
          "indexed": true,
          "internalType": "address",
          "name": "previousOwner",
          "type": "address"
        },
        {
          "indexed": true,
          "internalType": "address",
          "name": "newOwner",
          "type": "address"
        }
      ],
      "name": "OwnershipTransferred",
      "type": "event"
    },
    {
      "anonymous": false,
      "inputs": [
        {
          "indexed": false,
          "internalType": "address",
          "name": "account",
          "type": "address"
        }
      ],
      "name": "Paused",
      "type": "event"
    },
    {
      "anonymous": false,
      "inputs": [
        {
          "indexed": false,
          "internalType": "uint32",
          "name": "eid",
          "type": "uint32"
        },
        {
          "indexed": false,
          "internalType": "bytes32",
          "name": "peer",
          "type": "bytes32"
        }
      ],
      "name": "PeerSet",
      "type": "event"
    },
    {
      "anonymous": false,
      "inputs": [
        {
          "indexed": true,
          "internalType": "address",
          "name": "from",
          "type": "address"
        },
        {
          "indexed": true,
          "internalType": "address",
          "name": "to",
          "type": "address"
        },
        {
          "indexed": false,
          "internalType": "uint256",
          "name": "value",
          "type": "uint256"
        }
      ],
      "name": "Transfer",
      "type": "event"
    },
    {
      "anonymous": false,
      "inputs": [
        {
          "indexed": false,
          "internalType": "address",
          "name": "account",
          "type": "address"
        }
      ],
      "name": "Unpaused",
      "type": "event"
    },
    {
      "inputs": [],
      "name": "DOMAIN_SEPARATOR",
      "outputs": [
        {
          "internalType": "bytes32",
          "name": "",
          "type": "bytes32"
        }
      ],
      "stateMutability": "view",
      "type": "function"
    },
    {
      "inputs": [
        {
          "components": [
            {
              "internalType": "uint32",
              "name": "srcEid",
              "type": "uint32"
            },
            {
              "internalType": "bytes32",
              "name": "sender",
              "type": "bytes32"
            },
            {
              "internalType": "uint64",
              "name": "nonce",
              "type": "uint64"
            }
          ],
          "internalType": "struct Origin",
          "name": "origin",
          "type": "tuple"
        }
      ],
      "name": "allowInitializePath",
      "outputs": [
        {
          "internalType": "bool",
          "name": "",
          "type": "bool"
        }
      ],
      "stateMutability": "view",
      "type": "function"
    },
    {
      "inputs": [
        {
          "internalType": "address",
          "name": "owner",
          "type": "address"
        },
        {
          "internalType": "address",
          "name": "spender",
          "type": "address"
        }
      ],
      "name": "allowance",
      "outputs": [
        {
          "internalType": "uint256",
          "name": "",
          "type": "uint256"
        }
      ],
      "stateMutability": "view",
      "type": "function"
    },
    {
      "inputs": [
        {
          "internalType": "address",
          "name": "spender",
          "type": "address"
        },
        {
          "internalType": "uint256",
          "name": "value",
          "type": "uint256"
        }
      ],
      "name": "approve",
      "outputs": [
        {
          "internalType": "bool",
          "name": "",
          "type": "bool"
        }
      ],
      "stateMutability": "nonpayable",
      "type": "function"
    },
    {
      "inputs": [
        {
          "internalType": "address",
          "name": "account",
          "type": "address"
        }
      ],
      "name": "balanceOf",
      "outputs": [
        {
          "internalType": "uint256",
          "name": "",
          "type": "uint256"
        }
      ],
      "stateMutability": "view",
      "type": "function"
    },
    {
      "inputs": [
        {
          "internalType": "uint256",
          "name": "value",
          "type": "uint256"
        }
      ],
      "name": "burn",
      "outputs": [],
      "stateMutability": "nonpayable",
      "type": "function"
    },
    {
      "inputs": [
        {
          "internalType": "address",
          "name": "account",
          "type": "address"
        },
        {
          "internalType": "uint256",
          "name": "value",
          "type": "uint256"
        }
      ],
      "name": "burnFrom",
      "outputs": [],
      "stateMutability": "nonpayable",
      "type": "function"
    },
    {
      "inputs": [],
      "name": "decimals",
      "outputs": [
        {
          "internalType": "uint8",
          "name": "",
          "type": "uint8"
        }
      ],
      "stateMutability": "view",
      "type": "function"
    },
    {
      "inputs": [],
      "name": "eip712Domain",
      "outputs": [
        {
          "internalType": "bytes1",
          "name": "fields",
          "type": "bytes1"
        },
        {
          "internalType": "string",
          "name": "name",
          "type": "string"
        },
        {
          "internalType": "string",
          "name": "version",
          "type": "string"
        },
        {
          "internalType": "uint256",
          "name": "chainId",
          "type": "uint256"
        },
        {
          "internalType": "address",
          "name": "verifyingContract",
          "type": "address"
        },
        {
          "internalType": "bytes32",
          "name": "salt",
          "type": "bytes32"
        },
        {
          "internalType": "uint256[]",
          "name": "extensions",
          "type": "uint256[]"
        }
      ],
      "stateMutability": "view",
      "type": "function"
    },
    {
      "inputs": [],
      "name": "endpoint",
      "outputs": [
        {
          "internalType": "contract ILayerZeroEndpointV2",
          "name": "",
          "type": "address"
        }
      ],
      "stateMutability": "view",
      "type": "function"
    },
    {
      "inputs": [
        {
          "components": [
            {
              "internalType": "uint32",
              "name": "srcEid",
              "type": "uint32"
            },
            {
              "internalType": "bytes32",
              "name": "sender",
              "type": "bytes32"
            },
            {
              "internalType": "uint64",
              "name": "nonce",
              "type": "uint64"
            }
          ],
          "internalType": "struct Origin",
          "name": "",
          "type": "tuple"
        },
        {
          "internalType": "bytes",
          "name": "",
          "type": "bytes"
        },
        {
          "internalType": "address",
          "name": "_sender",
          "type": "address"
        }
      ],
      "name": "isComposeMsgSender",
      "outputs": [
        {
          "internalType": "bool",
          "name": "",
          "type": "bool"
        }
      ],
      "stateMutability": "view",
      "type": "function"
    },
    {
      "inputs": [
        {
          "components": [
            {
              "internalType": "uint32",
              "name": "srcEid",
              "type": "uint32"
            },
            {
              "internalType": "bytes32",
              "name": "sender",
              "type": "bytes32"
            },
            {
              "internalType": "uint64",
              "name": "nonce",
              "type": "uint64"
            }
          ],
          "internalType": "struct Origin",
          "name": "_origin",
          "type": "tuple"
        },
        {
          "internalType": "bytes32",
          "name": "_guid",
          "type": "bytes32"
        },
        {
          "internalType": "bytes",
          "name": "_message",
          "type": "bytes"
        },
        {
          "internalType": "address",
          "name": "_executor",
          "type": "address"
        },
        {
          "internalType": "bytes",
          "name": "_extraData",
          "type": "bytes"
        }
      ],
      "name": "lzReceive",
      "outputs": [],
      "stateMutability": "payable",
      "type": "function"
    },
    {
      "inputs": [
        {
          "internalType": "uint32",
          "name": "_dstEid",
          "type": "uint32"
        },
        {
          "internalType": "string",
          "name": "_message",
          "type": "string"
        },
        {
          "internalType": "address",
          "name": "_composedAddress",
          "type": "address"
        },
        {
          "internalType": "bytes",
          "name": "_options",
          "type": "bytes"
        }
      ],
      "name": "mint",
      "outputs": [],
      "stateMutability": "payable",
      "type": "function"
    },
    {
      "inputs": [],
      "name": "name",
      "outputs": [
        {
          "internalType": "string",
          "name": "",
          "type": "string"
        }
      ],
      "stateMutability": "view",
      "type": "function"
    },
    {
      "inputs": [
        {
          "internalType": "uint32",
          "name": "",
          "type": "uint32"
        },
        {
          "internalType": "bytes32",
          "name": "",
          "type": "bytes32"
        }
      ],
      "name": "nextNonce",
      "outputs": [
        {
          "internalType": "uint64",
          "name": "nonce",
          "type": "uint64"
        }
      ],
      "stateMutability": "view",
      "type": "function"
    },
    {
      "inputs": [
        {
          "internalType": "address",
          "name": "owner",
          "type": "address"
        }
      ],
      "name": "nonces",
      "outputs": [
        {
          "internalType": "uint256",
          "name": "",
          "type": "uint256"
        }
      ],
      "stateMutability": "view",
      "type": "function"
    },
    {
      "inputs": [],
      "name": "oAppVersion",
      "outputs": [
        {
          "internalType": "uint64",
          "name": "senderVersion",
          "type": "uint64"
        },
        {
          "internalType": "uint64",
          "name": "receiverVersion",
          "type": "uint64"
        }
      ],
      "stateMutability": "pure",
      "type": "function"
    },
    {
      "inputs": [],
      "name": "owner",
      "outputs": [
        {
          "internalType": "address",
          "name": "",
          "type": "address"
        }
      ],
      "stateMutability": "view",
      "type": "function"
    },
    {
      "inputs": [],
      "name": "pause",
      "outputs": [],
      "stateMutability": "nonpayable",
      "type": "function"
    },
    {
      "inputs": [],
      "name": "paused",
      "outputs": [
        {
          "internalType": "bool",
          "name": "",
          "type": "bool"
        }
      ],
      "stateMutability": "view",
      "type": "function"
    },
    {
      "inputs": [
        {
          "internalType": "uint32",
          "name": "eid",
          "type": "uint32"
        }
      ],
      "name": "peers",
      "outputs": [
        {
          "internalType": "bytes32",
          "name": "peer",
          "type": "bytes32"
        }
      ],
      "stateMutability": "view",
      "type": "function"
    },
    {
      "inputs": [
        {
          "internalType": "address",
          "name": "owner",
          "type": "address"
        },
        {
          "internalType": "address",
          "name": "spender",
          "type": "address"
        },
        {
          "internalType": "uint256",
          "name": "value",
          "type": "uint256"
        },
        {
          "internalType": "uint256",
          "name": "deadline",
          "type": "uint256"
        },
        {
          "internalType": "uint8",
          "name": "v",
          "type": "uint8"
        },
        {
          "internalType": "bytes32",
          "name": "r",
          "type": "bytes32"
        },
        {
          "internalType": "bytes32",
          "name": "s",
          "type": "bytes32"
        }
      ],
      "name": "permit",
      "outputs": [],
      "stateMutability": "nonpayable",
      "type": "function"
    },
    {
      "inputs": [],
      "name": "renounceOwnership",
      "outputs": [],
      "stateMutability": "nonpayable",
      "type": "function"
    },
    {
      "inputs": [
        {
          "internalType": "address",
          "name": "_delegate",
          "type": "address"
        }
      ],
      "name": "setDelegate",
      "outputs": [],
      "stateMutability": "nonpayable",
      "type": "function"
    },
    {
      "inputs": [
        {
          "internalType": "uint32",
          "name": "_eid",
          "type": "uint32"
        },
        {
          "internalType": "bytes32",
          "name": "_peer",
          "type": "bytes32"
        }
      ],
      "name": "setPeer",
      "outputs": [],
      "stateMutability": "nonpayable",
      "type": "function"
    },
    {
      "inputs": [],
      "name": "symbol",
      "outputs": [
        {
          "internalType": "string",
          "name": "",
          "type": "string"
        }
      ],
      "stateMutability": "view",
      "type": "function"
    },
    {
      "inputs": [],
      "name": "totalSupply",
      "outputs": [
        {
          "internalType": "uint256",
          "name": "",
          "type": "uint256"
        }
      ],
      "stateMutability": "view",
      "type": "function"
    },
    {
      "inputs": [
        {
          "internalType": "address",
          "name": "to",
          "type": "address"
        },
        {
          "internalType": "uint256",
          "name": "value",
          "type": "uint256"
        }
      ],
      "name": "transfer",
      "outputs": [
        {
          "internalType": "bool",
          "name": "",
          "type": "bool"
        }
      ],
      "stateMutability": "nonpayable",
      "type": "function"
    },
    {
      "inputs": [
        {
          "internalType": "address",
          "name": "from",
          "type": "address"
        },
        {
          "internalType": "address",
          "name": "to",
          "type": "address"
        },
        {
          "internalType": "uint256",
          "name": "value",
          "type": "uint256"
        }
      ],
      "name": "transferFrom",
      "outputs": [
        {
          "internalType": "bool",
          "name": "",
          "type": "bool"
        }
      ],
      "stateMutability": "nonpayable",
      "type": "function"
    },
    {
      "inputs": [
        {
          "internalType": "address",
          "name": "newOwner",
          "type": "address"
        }
      ],
      "name": "transferOwnership",
      "outputs": [],
      "stateMutability": "nonpayable",
      "type": "function"
    },
    {
      "inputs": [],
      "name": "unpause",
      "outputs": [],
      "stateMutability": "nonpayable",
      "type": "function"
    }
  ],
  "transactionHash": "0xac7f3fd5286521573a033896052c90a75d8374244646967aa5a660423a9bf318",
  "args": [
    "Sereno",
    "SRN",
    "0x6EDCE65403992e310A62460808c4b910D972f10f",
    "0x480B6062b4B2188aC60065Bb71A59c6AE15e9de9"
  ],
  "numDeployments": 1,
  "solcInputHash": "186b9337cd817b28745f2cfb3d44de67",
  "bytecode": "0x6101806040523480156200001257600080fd5b50604051620027db380380620027db8339810160408190526200003591620003ce565b81818181878581604051806040016040528060018152602001603160f81b8152508b8b8160039081620000699190620004ee565b506004620000788282620004ee565b50506005805460ff19169055506200009282600662000216565b61012052620000a381600762000216565b61014052815160208084019190912060e052815190820120610100524660a0526200013160e05161010051604080517f8b73c3c69bb8fe3d512ecc4cf759cc79239f7b179b0ffacaa9a75d522b39400f60208201529081019290925260608201524660808201523060a082015260009060c00160405160208183030381529060405280519060200120905090565b60805250503060c0526001600160a01b0381166200016a57604051631e4fbdf760e01b8152600060048201526024015b60405180910390fd5b62000175816200024f565b50506001600160a01b03808316610160528116620001a657604051632d618d8160e21b815260040160405180910390fd5b6101605160405163ca5eb5e160e01b81526001600160a01b0383811660048301529091169063ca5eb5e190602401600060405180830381600087803b158015620001ef57600080fd5b505af115801562000204573d6000803e3d6000fd5b50505050505050505050505062000614565b600060208351101562000236576200022e83620002a1565b905062000249565b81620002438482620004ee565b5060ff90505b92915050565b600980546001600160a01b038381166001600160a01b0319831681179093556040519116919082907f8be0079c531659141344cd1fd0a4f28419497f9722a3daafe3b4186f6b6457e090600090a35050565b600080829050601f81511115620002cf578260405163305a27a960e01b8152600401620001619190620005ba565b8051620002dc82620005ef565b179392505050565b634e487b7160e01b600052604160045260246000fd5b60005b8381101562000317578181015183820152602001620002fd565b50506000910152565b600082601f8301126200033257600080fd5b81516001600160401b03808211156200034f576200034f620002e4565b604051601f8301601f19908116603f011681019082821181831017156200037a576200037a620002e4565b816040528381528660208588010111156200039457600080fd5b620003a7846020830160208901620002fa565b9695505050505050565b80516001600160a01b0381168114620003c957600080fd5b919050565b60008060008060808587031215620003e557600080fd5b84516001600160401b0380821115620003fd57600080fd5b6200040b8883890162000320565b955060208701519150808211156200042257600080fd5b50620004318782880162000320565b9350506200044260408601620003b1565b91506200045260608601620003b1565b905092959194509250565b600181811c908216806200047257607f821691505b6020821081036200049357634e487b7160e01b600052602260045260246000fd5b50919050565b601f821115620004e9576000816000526020600020601f850160051c81016020861015620004c45750805b601f850160051c820191505b81811015620004e557828155600101620004d0565b5050505b505050565b81516001600160401b038111156200050a576200050a620002e4565b62000522816200051b84546200045d565b8462000499565b602080601f8311600181146200055a5760008415620005415750858301515b600019600386901b1c1916600185901b178555620004e5565b600085815260208120601f198616915b828110156200058b578886015182559484019460019091019084016200056a565b5085821015620005aa5787850151600019600388901b60f8161c191681555b5050505050600190811b01905550565b6020815260008251806020840152620005db816040850160208701620002fa565b601f01601f19169190910160400192915050565b80516020808301519190811015620004935760001960209190910360031b1b16919050565b60805160a05160c05160e0516101005161012051610140516101605161213e6200069d60003960008181610371015281816106d20152818161095201528181610f13015281816112900152611349015260006110ae0152600061108101526000610e0701526000610ddf01526000610d3a01526000610d6401526000610d8e015261213e6000f3fe6080604052600436106101d85760003560e01c8063715018a61161010257806395d89b4111610095578063d505accf11610064578063d505accf1461057e578063dd62ed3e1461059e578063f2fde38b146105e4578063ff7bd03d1461060457600080fd5b806395d89b41146104fc578063a9059cbb14610511578063bb0b6a5314610531578063ca5eb5e11461055e57600080fd5b806382413eac116100d157806382413eac146104725780638456cb59146104a157806384b0196e146104b65780638da5cb5b146104de57600080fd5b8063715018a6146103e157806379cc6790146103f65780637d25a05e146104165780637ecebe001461045257600080fd5b80633400288b1161017a57806354c9ba3a1161014957806354c9ba3a146103345780635c975abb146103475780635e280f111461035f57806370a08231146103ab57600080fd5b80633400288b146102ca5780633644e515146102ea5780633f4ba83a146102ff57806342966c681461031457600080fd5b806317442b70116101b657806317442b701461024d57806318160ddd1461026f57806323b872dd1461028e578063313ce567146102ae57600080fd5b806306fdde03146101dd578063095ea7b31461020857806313137d6514610238575b600080fd5b3480156101e957600080fd5b506101f2610624565b6040516101ff91906119c5565b60405180910390f35b34801561021457600080fd5b506102286102233660046119fd565b6106b6565b60405190151581526020016101ff565b61024b610246366004611a8a565b6106d0565b005b34801561025957600080fd5b50604080516001815260026020820152016101ff565b34801561027b57600080fd5b506002545b6040519081526020016101ff565b34801561029a57600080fd5b506102286102a9366004611b2a565b610790565b3480156102ba57600080fd5b50604051601281526020016101ff565b3480156102d657600080fd5b5061024b6102e5366004611b7f565b6107b6565b3480156102f657600080fd5b506102806107cc565b34801561030b57600080fd5b5061024b6107db565b34801561032057600080fd5b5061024b61032f366004611b9b565b6107ed565b61024b610342366004611c24565b6107fa565b34801561035357600080fd5b5060055460ff16610228565b34801561036b57600080fd5b506103937f000000000000000000000000000000000000000000000000000000000000000081565b6040516001600160a01b0390911681526020016101ff565b3480156103b757600080fd5b506102806103c6366004611d05565b6001600160a01b031660009081526020819052604090205490565b3480156103ed57600080fd5b5061024b610873565b34801561040257600080fd5b5061024b6104113660046119fd565b610885565b34801561042257600080fd5b50610439610431366004611b7f565b600092915050565b60405167ffffffffffffffff90911681526020016101ff565b34801561045e57600080fd5b5061028061046d366004611d05565b61089a565b34801561047e57600080fd5b5061022861048d366004611d22565b6001600160a01b0381163014949350505050565b3480156104ad57600080fd5b5061024b6108b8565b3480156104c257600080fd5b506104cb6108c8565b6040516101ff9796959493929190611d89565b3480156104ea57600080fd5b506009546001600160a01b0316610393565b34801561050857600080fd5b506101f261090e565b34801561051d57600080fd5b5061022861052c3660046119fd565b61091d565b34801561053d57600080fd5b5061028061054c366004611e22565b600a6020526000908152604090205481565b34801561056a57600080fd5b5061024b610579366004611d05565b61092b565b34801561058a57600080fd5b5061024b610599366004611e3d565b6109b1565b3480156105aa57600080fd5b506102806105b9366004611eb4565b6001600160a01b03918216600090815260016020908152604080832093909416825291909152205490565b3480156105f057600080fd5b5061024b6105ff366004611d05565b610aeb565b34801561061057600080fd5b5061022861061f366004611eed565b610b26565b60606003805461063390611f09565b80601f016020809104026020016040519081016040528092919081815260200182805461065f90611f09565b80156106ac5780601f10610681576101008083540402835291602001916106ac565b820191906000526020600020905b81548152906001019060200180831161068f57829003601f168201915b5050505050905090565b6000336106c4818585610b5c565b60019150505b92915050565b7f00000000000000000000000000000000000000000000000000000000000000006001600160a01b03163314610720576040516391ac5e4f60e01b81523360048201526024015b60405180910390fd5b6020870180359061073a90610735908a611e22565b610b6e565b146107785761074c6020880188611e22565b60405163309afaf360e21b815263ffffffff909116600482015260208801356024820152604401610717565b61078787878787878787610baa565b50505050505050565b60003361079e858285610bce565b6107a9858585610c4c565b60019150505b9392505050565b6107be610cab565b6107c88282610cd8565b5050565b60006107d6610d2d565b905090565b6107e3610cab565b6107eb610e58565b565b6107f73382610eaa565b50565b6000848460405160200161080f929190611f3d565b60408051601f198184030181526020601f86018190048102840181019092528483529250610787918891849190879087908190840183828082843760009201829052506040805180820190915234815260208101919091529250339150610ee09050565b61087b610cab565b6107eb6000610feb565b610890823383610bce565b6107c88282610eaa565b6001600160a01b0381166000908152600860205260408120546106ca565b6108c0610cab565b6107eb61103d565b6000606080600080600060606108dc61107a565b6108e46110a7565b60408051600080825260208201909252600f60f81b9b939a50919850469750309650945092509050565b60606004805461063390611f09565b6000336106c4818585610c4c565b610933610cab565b60405163ca5eb5e160e01b81526001600160a01b0382811660048301527f0000000000000000000000000000000000000000000000000000000000000000169063ca5eb5e190602401600060405180830381600087803b15801561099657600080fd5b505af11580156109aa573d6000803e3d6000fd5b5050505050565b834211156109d55760405163313c898160e11b815260048101859052602401610717565b60007f6e71edae12b1b97f4d1f60370fef10105fa2faae0126114a169c64845d6126c9888888610a228c6001600160a01b0316600090815260086020526040902080546001810190915590565b6040805160208101969096526001600160a01b0394851690860152929091166060840152608083015260a082015260c0810186905260e0016040516020818303038152906040528051906020012090506000610a7d826110d4565b90506000610a8d82878787611101565b9050896001600160a01b0316816001600160a01b031614610ad4576040516325c0072360e11b81526001600160a01b0380831660048301528b166024820152604401610717565b610adf8a8a8a610b5c565b50505050505050505050565b610af3610cab565b6001600160a01b038116610b1d57604051631e4fbdf760e01b815260006004820152602401610717565b6107f781610feb565b600060208201803590600a908390610b3e9086611e22565b63ffffffff1681526020810191909152604001600020541492915050565b610b69838383600161112f565b505050565b63ffffffff81166000908152600a6020526040812054806106ca5760405163f6ff4fb760e01b815263ffffffff84166004820152602401610717565b6000610bb885870187611b9b565b9050610bc48482611204565b5050505050505050565b6001600160a01b038381166000908152600160209081526040808320938616835292905220546000198114610c465781811015610c3757604051637dc7a0d960e11b81526001600160a01b03841660048201526024810182905260448101839052606401610717565b610c468484848403600061112f565b50505050565b6001600160a01b038316610c7657604051634b637e8f60e11b815260006004820152602401610717565b6001600160a01b038216610ca05760405163ec442f0560e01b815260006004820152602401610717565b610b69838383611236565b6009546001600160a01b031633146107eb5760405163118cdaa760e01b8152336004820152602401610717565b63ffffffff82166000818152600a6020908152604091829020849055815192835282018390527f238399d427b947898edb290f5ff0f9109849b1c3ba196a42e35f00c50a54b98b910160405180910390a15050565b6000306001600160a01b037f000000000000000000000000000000000000000000000000000000000000000016148015610d8657507f000000000000000000000000000000000000000000000000000000000000000046145b15610db057507f000000000000000000000000000000000000000000000000000000000000000090565b6107d6604080517f8b73c3c69bb8fe3d512ecc4cf759cc79239f7b179b0ffacaa9a75d522b39400f60208201527f0000000000000000000000000000000000000000000000000000000000000000918101919091527f000000000000000000000000000000000000000000000000000000000000000060608201524660808201523060a082015260009060c00160405160208183030381529060405280519060200120905090565b610e60611241565b6005805460ff191690557f5db9ee0a495bf2e6ff9c91a7834c1ba4fdd244a5e8aa4e537bd38aeae4b073aa335b6040516001600160a01b03909116815260200160405180910390a1565b6001600160a01b038216610ed457604051634b637e8f60e11b815260006004820152602401610717565b6107c882600083611236565b610ee861192d565b6000610ef78460000151611264565b602085015190915015610f1157610f11846020015161128c565b7f00000000000000000000000000000000000000000000000000000000000000006001600160a01b0316632637a450826040518060a001604052808b63ffffffff168152602001610f618c610b6e565b81526020018a815260200189815260200160008960200151111515815250866040518463ffffffff1660e01b8152600401610f9d929190611f67565b60806040518083038185885af1158015610fbb573d6000803e3d6000fd5b50505050506040513d601f19601f82011682018060405250810190610fe09190611fe0565b979650505050505050565b600980546001600160a01b038381166001600160a01b0319831681179093556040519116919082907f8be0079c531659141344cd1fd0a4f28419497f9722a3daafe3b4186f6b6457e090600090a35050565b61104561136e565b6005805460ff191660011790557f62e78cea01bee320cd4e420270b5ea74000d11b0c9f74754ebdbfc544b05a258610e8d3390565b60606107d67f00000000000000000000000000000000000000000000000000000000000000006006611392565b60606107d67f00000000000000000000000000000000000000000000000000000000000000006007611392565b60006106ca6110e1610d2d565b8360405161190160f01b8152600281019290925260228201526042902090565b6000806000806111138888888861143d565b925092509250611123828261150c565b50909695505050505050565b6001600160a01b0384166111595760405163e602df0560e01b815260006004820152602401610717565b6001600160a01b03831661118357604051634a1406b160e11b815260006004820152602401610717565b6001600160a01b0380851660009081526001602090815260408083209387168352929052208290558015610c4657826001600160a01b0316846001600160a01b03167f8c5be1e5ebec7d5bd14f71427d1e84f3dd0314c0f7b2291e5b200ac8c7c3b925846040516111f691815260200190565b60405180910390a350505050565b6001600160a01b03821661122e5760405163ec442f0560e01b815260006004820152602401610717565b6107c8600083835b610b698383836115c5565b60055460ff166107eb57604051638dfc202b60e01b815260040160405180910390fd5b6000813414611288576040516304fb820960e51b8152346004820152602401610717565b5090565b60007f00000000000000000000000000000000000000000000000000000000000000006001600160a01b031663e4fe1d946040518163ffffffff1660e01b8152600401602060405180830381865afa1580156112ec573d6000803e3d6000fd5b505050506040513d601f19601f820116820180604052508101906113109190612076565b90506001600160a01b038116611339576040516329b99a9560e11b815260040160405180910390fd5b6107c86001600160a01b038216337f0000000000000000000000000000000000000000000000000000000000000000856115d8565b60055460ff16156107eb5760405163d93c066560e01b815260040160405180910390fd5b606060ff83146113ac576113a583611632565b90506106ca565b8180546113b890611f09565b80601f01602080910402602001604051908101604052809291908181526020018280546113e490611f09565b80156114315780601f1061140657610100808354040283529160200191611431565b820191906000526020600020905b81548152906001019060200180831161141457829003601f168201915b505050505090506106ca565b600080807f7fffffffffffffffffffffffffffffff5d576e7357a4501ddfe92f46681b20a08411156114785750600091506003905082611502565b604080516000808252602082018084528a905260ff891692820192909252606081018790526080810186905260019060a0016020604051602081039080840390855afa1580156114cc573d6000803e3d6000fd5b5050604051601f1901519150506001600160a01b0381166114f857506000925060019150829050611502565b9250600091508190505b9450945094915050565b600082600381111561152057611520612093565b03611529575050565b600182600381111561153d5761153d612093565b0361155b5760405163f645eedf60e01b815260040160405180910390fd5b600282600381111561156f5761156f612093565b036115905760405163fce698f760e01b815260048101829052602401610717565b60038260038111156115a4576115a4612093565b036107c8576040516335e2f38360e21b815260048101829052602401610717565b6115cd61136e565b610b69838383611671565b604080516001600160a01b0385811660248301528416604482015260648082018490528251808303909101815260849091019091526020810180516001600160e01b03166323b872dd60e01b179052610c4690859061179b565b6060600061163f836117fe565b604080516020808252818301909252919250600091906020820181803683375050509182525060208101929092525090565b6001600160a01b03831661169c57806002600082825461169191906120a9565b9091555061170e9050565b6001600160a01b038316600090815260208190526040902054818110156116ef5760405163391434e360e21b81526001600160a01b03851660048201526024810182905260448101839052606401610717565b6001600160a01b03841660009081526020819052604090209082900390555b6001600160a01b03821661172a57600280548290039055611749565b6001600160a01b03821660009081526020819052604090208054820190555b816001600160a01b0316836001600160a01b03167fddf252ad1be2c89b69c2b068fc378daa952ba7f163c4a11628f55a4df523b3ef8360405161178e91815260200190565b60405180910390a3505050565b60006117b06001600160a01b03841683611826565b905080516000141580156117d55750808060200190518101906117d391906120ca565b155b15610b6957604051635274afe760e01b81526001600160a01b0384166004820152602401610717565b600060ff8216601f8111156106ca57604051632cd44ac360e21b815260040160405180910390fd5b60606107af8383600084600080856001600160a01b0316848660405161184c91906120ec565b60006040518083038185875af1925050503d8060008114611889576040519150601f19603f3d011682016040523d82523d6000602084013e61188e565b606091505b509150915061189e8683836118a8565b9695505050505050565b6060826118bd576118b882611904565b6107af565b81511580156118d457506001600160a01b0384163b155b156118fd57604051639996b31560e01b81526001600160a01b0385166004820152602401610717565b50806107af565b8051156119145780518082602001fd5b604051630a12f52160e11b815260040160405180910390fd5b604051806060016040528060008019168152602001600067ffffffffffffffff168152602001611970604051806040016040528060008152602001600081525090565b905290565b60005b83811015611990578181015183820152602001611978565b50506000910152565b600081518084526119b1816020860160208601611975565b601f01601f19169290920160200192915050565b6020815260006107af6020830184611999565b6001600160a01b03811681146107f757600080fd5b80356119f8816119d8565b919050565b60008060408385031215611a1057600080fd5b8235611a1b816119d8565b946020939093013593505050565b600060608284031215611a3b57600080fd5b50919050565b60008083601f840112611a5357600080fd5b50813567ffffffffffffffff811115611a6b57600080fd5b602083019150836020828501011115611a8357600080fd5b9250929050565b600080600080600080600060e0888a031215611aa557600080fd5b611aaf8989611a29565b965060608801359550608088013567ffffffffffffffff80821115611ad357600080fd5b611adf8b838c01611a41565b909750955060a08a01359150611af4826119d8565b90935060c08901359080821115611b0a57600080fd5b50611b178a828b01611a41565b989b979a50959850939692959293505050565b600080600060608486031215611b3f57600080fd5b8335611b4a816119d8565b92506020840135611b5a816119d8565b929592945050506040919091013590565b803563ffffffff811681146119f857600080fd5b60008060408385031215611b9257600080fd5b611a1b83611b6b565b600060208284031215611bad57600080fd5b5035919050565b634e487b7160e01b600052604160045260246000fd5b6040805190810167ffffffffffffffff81118282101715611bed57611bed611bb4565b60405290565b604051601f8201601f1916810167ffffffffffffffff81118282101715611c1c57611c1c611bb4565b604052919050565b600080600080600060808688031215611c3c57600080fd5b611c4586611b6b565b945060208087013567ffffffffffffffff80821115611c6357600080fd5b818901915089601f830112611c7757600080fd5b813581811115611c8957611c89611bb4565b611c9b601f8201601f19168501611bf3565b8181528b85838601011115611caf57600080fd5b818585018683013760008583830101528098505050611cd060408a016119ed565b95506060890135925080831115611ce657600080fd5b5050611cf488828901611a41565b969995985093965092949392505050565b600060208284031215611d1757600080fd5b81356107af816119d8565b60008060008060a08587031215611d3857600080fd5b611d428686611a29565b9350606085013567ffffffffffffffff811115611d5e57600080fd5b611d6a87828801611a41565b9094509250506080850135611d7e816119d8565b939692955090935050565b60ff60f81b881681526000602060e06020840152611daa60e084018a611999565b8381036040850152611dbc818a611999565b606085018990526001600160a01b038816608086015260a0850187905284810360c08601528551808252602080880193509091019060005b81811015611e1057835183529284019291840191600101611df4565b50909c9b505050505050505050505050565b600060208284031215611e3457600080fd5b6107af82611b6b565b600080600080600080600060e0888a031215611e5857600080fd5b8735611e63816119d8565b96506020880135611e73816119d8565b95506040880135945060608801359350608088013560ff81168114611e9757600080fd5b9699959850939692959460a0840135945060c09093013592915050565b60008060408385031215611ec757600080fd5b8235611ed2816119d8565b91506020830135611ee2816119d8565b809150509250929050565b600060608284031215611eff57600080fd5b6107af8383611a29565b600181811c90821680611f1d57607f821691505b602082108103611a3b57634e487b7160e01b600052602260045260246000fd5b604081526000611f506040830185611999565b905060018060a01b03831660208301529392505050565b6040815263ffffffff8351166040820152602083015160608201526000604084015160a06080840152611f9d60e0840182611999565b90506060850151603f198483030160a0850152611fba8282611999565b60809690960151151560c08501525050506001600160a01b039190911660209091015290565b60008183036080811215611ff357600080fd5b6040516060810167ffffffffffffffff828210818311171561201757612017611bb4565b816040528551835260208601519150808216821461203457600080fd5b5060208201526040603f198301121561204c57600080fd5b612054611bca565b6040858101518252606090950151602082015293810193909352509092915050565b60006020828403121561208857600080fd5b81516107af816119d8565b634e487b7160e01b600052602160045260246000fd5b808201808211156106ca57634e487b7160e01b600052601160045260246000fd5b6000602082840312156120dc57600080fd5b815180151581146107af57600080fd5b600082516120fe818460208701611975565b919091019291505056fea2646970667358221220e37d3e414734f51860e503f53356c6338cb8ebc2d9c756aad6882c29bc7c372f64736f6c63430008170033",
  "devdoc": {
    "errors": {
      "AddressEmptyCode(address)": [
        {
          "details": "There's no code at `target` (it is not a contract)."
        }
      ],
      "AddressInsufficientBalance(address)": [
        {
          "details": "The ETH balance of the account is not enough to perform the operation."
        }
      ],
      "ECDSAInvalidSignature()": [
        {
          "details": "The signature derives the `address(0)`."
        }
      ],
      "ECDSAInvalidSignatureLength(uint256)": [
        {
          "details": "The signature has an invalid length."
        }
      ],
      "ECDSAInvalidSignatureS(bytes32)": [
        {
          "details": "The signature has an S value that is in the upper half order."
        }
      ],
      "ERC20InsufficientAllowance(address,uint256,uint256)": [
        {
          "details": "Indicates a failure with the `spender`s `allowance`. Used in transfers.",
          "params": {
            "allowance": "Amount of tokens a `spender` is allowed to operate with.",
            "needed": "Minimum amount required to perform a transfer.",
            "spender": "Address that may be allowed to operate on tokens without being their owner."
          }
        }
      ],
      "ERC20InsufficientBalance(address,uint256,uint256)": [
        {
          "details": "Indicates an error related to the current `balance` of a `sender`. Used in transfers.",
          "params": {
            "balance": "Current balance for the interacting account.",
            "needed": "Minimum amount required to perform a transfer.",
            "sender": "Address whose tokens are being transferred."
          }
        }
      ],
      "ERC20InvalidApprover(address)": [
        {
          "details": "Indicates a failure with the `approver` of a token to be approved. Used in approvals.",
          "params": {
            "approver": "Address initiating an approval operation."
          }
        }
      ],
      "ERC20InvalidReceiver(address)": [
        {
          "details": "Indicates a failure with the token `receiver`. Used in transfers.",
          "params": {
            "receiver": "Address to which tokens are being transferred."
          }
        }
      ],
      "ERC20InvalidSender(address)": [
        {
          "details": "Indicates a failure with the token `sender`. Used in transfers.",
          "params": {
            "sender": "Address whose tokens are being transferred."
          }
        }
      ],
      "ERC20InvalidSpender(address)": [
        {
          "details": "Indicates a failure with the `spender` to be approved. Used in approvals.",
          "params": {
            "spender": "Address that may be allowed to operate on tokens without being their owner."
          }
        }
      ],
      "ERC2612ExpiredSignature(uint256)": [
        {
          "details": "Permit deadline has expired."
        }
      ],
      "ERC2612InvalidSigner(address,address)": [
        {
          "details": "Mismatched signature."
        }
      ],
      "EnforcedPause()": [
        {
          "details": "The operation failed because the contract is paused."
        }
      ],
      "ExpectedPause()": [
        {
          "details": "The operation failed because the contract is not paused."
        }
      ],
      "FailedInnerCall()": [
        {
          "details": "A call to an address target failed. The target may have reverted."
        }
      ],
      "InvalidAccountNonce(address,uint256)": [
        {
          "details": "The nonce used for an `account` is not the expected current nonce."
        }
      ],
      "OwnableInvalidOwner(address)": [
        {
          "details": "The owner is not a valid owner account. (eg. `address(0)`)"
        }
      ],
      "OwnableUnauthorizedAccount(address)": [
        {
          "details": "The caller account is not authorized to perform an operation."
        }
      ],
      "SafeERC20FailedOperation(address)": [
        {
          "details": "An operation with an ERC20 token failed."
        }
      ]
    },
    "events": {
      "Approval(address,address,uint256)": {
        "details": "Emitted when the allowance of a `spender` for an `owner` is set by a call to {approve}. `value` is the new allowance."
      },
      "EIP712DomainChanged()": {
        "details": "MAY be emitted to signal that the domain could have changed."
      },
      "Paused(address)": {
        "details": "Emitted when the pause is triggered by `account`."
      },
      "Transfer(address,address,uint256)": {
        "details": "Emitted when `value` tokens are moved from one account (`from`) to another (`to`). Note that `value` may be zero."
      },
      "Unpaused(address)": {
        "details": "Emitted when the pause is lifted by `account`."
      }
    },
    "kind": "dev",
    "methods": {
      "DOMAIN_SEPARATOR()": {
        "details": "Returns the domain separator used in the encoding of the signature for {permit}, as defined by {EIP712}."
      },
      "allowInitializePath((uint32,bytes32,uint64))": {
        "details": "This indicates to the endpoint that the OApp has enabled msgs for this particular path to be received.This defaults to assuming if a peer has been set, its initialized. Can be overridden by the OApp if there is other logic to determine this.",
        "params": {
          "origin": "The origin information containing the source endpoint and sender address."
        },
        "returns": {
          "_0": "Whether the path has been initialized."
        }
      },
      "allowance(address,address)": {
        "details": "See {IERC20-allowance}."
      },
      "approve(address,uint256)": {
        "details": "See {IERC20-approve}. NOTE: If `value` is the maximum `uint256`, the allowance is not updated on `transferFrom`. This is semantically equivalent to an infinite approval. Requirements: - `spender` cannot be the zero address."
      },
      "balanceOf(address)": {
        "details": "See {IERC20-balanceOf}."
      },
      "burn(uint256)": {
        "details": "Destroys a `value` amount of tokens from the caller. See {ERC20-_burn}."
      },
      "burnFrom(address,uint256)": {
        "details": "Destroys a `value` amount of tokens from `account`, deducting from the caller's allowance. See {ERC20-_burn} and {ERC20-allowance}. Requirements: - the caller must have allowance for ``accounts``'s tokens of at least `value`."
      },
      "decimals()": {
        "details": "Returns the number of decimals used to get its user representation. For example, if `decimals` equals `2`, a balance of `505` tokens should be displayed to a user as `5.05` (`505 / 10 ** 2`). Tokens usually opt for a value of 18, imitating the relationship between Ether and Wei. This is the default value returned by this function, unless it's overridden. NOTE: This information is only used for _display_ purposes: it in no way affects any of the arithmetic of the contract, including {IERC20-balanceOf} and {IERC20-transfer}."
      },
      "eip712Domain()": {
        "details": "See {IERC-5267}."
      },
      "isComposeMsgSender((uint32,bytes32,uint64),bytes,address)": {
        "details": "_origin The origin information containing the source endpoint and sender address.  - srcEid: The source chain endpoint ID.  - sender: The sender address on the src chain.  - nonce: The nonce of the message._message The lzReceive payload.Applications can optionally choose to implement separate composeMsg senders that are NOT the bridging layer.The default sender IS the OAppReceiver implementer.",
        "params": {
          "_sender": "The sender address."
        },
        "returns": {
          "_0": "isSender Is a valid sender."
        }
      },
      "lzReceive((uint32,bytes32,uint64),bytes32,bytes,address,bytes)": {
        "details": "Entry point for receiving messages or packets from the endpoint.Entry point for receiving msg/packet from the LayerZero endpoint.",
        "params": {
          "_executor": "The address of the executor for the received message.",
          "_extraData": "Additional arbitrary data provided by the corresponding executor.",
          "_guid": "The unique identifier for the received LayerZero message.",
          "_message": "The payload of the received message.",
          "_origin": "The origin information containing the source endpoint and sender address.  - srcEid: The source chain endpoint ID.  - sender: The sender address on the src chain.  - nonce: The nonce of the message."
        }
      },
      "mint(uint32,string,address,bytes)": {
        "details": "onlyOwner",
        "params": {
          "_dstEid": "uint32"
        }
      },
      "name()": {
        "details": "Returns the name of the token."
      },
      "nextNonce(uint32,bytes32)": {
        "details": "_srcEid The source endpoint ID._sender The sender address.The path nonce starts from 1. If 0 is returned it means that there is NO nonce ordered enforcement.Is required by the off-chain executor to determine the OApp expects msg execution is ordered.This is also enforced by the OApp.By default this is NOT enabled. ie. nextNonce is hardcoded to return 0.",
        "returns": {
          "nonce": "The next nonce."
        }
      },
      "nonces(address)": {
        "details": "Returns the current nonce for `owner`. This value must be included whenever a signature is generated for {permit}. Every successful call to {permit} increases ``owner``'s nonce by one. This prevents a signature from being used multiple times."
      },
      "oAppVersion()": {
        "returns": {
          "receiverVersion": "The version of the OAppReceiver.sol implementation.",
          "senderVersion": "The version of the OAppSender.sol implementation."
        }
      },
      "owner()": {
        "details": "Returns the address of the current owner."
      },
      "paused()": {
        "details": "Returns true if the contract is paused, and false otherwise."
      },
      "permit(address,address,uint256,uint256,uint8,bytes32,bytes32)": {
        "details": "Sets `value` as the allowance of `spender` over ``owner``'s tokens, given ``owner``'s signed approval. IMPORTANT: The same issues {IERC20-approve} has related to transaction ordering also apply here. Emits an {Approval} event. Requirements: - `spender` cannot be the zero address. - `deadline` must be a timestamp in the future. - `v`, `r` and `s` must be a valid `secp256k1` signature from `owner` over the EIP712-formatted function arguments. - the signature must use ``owner``'s current nonce (see {nonces}). For more information on the signature format, see the https://eips.ethereum.org/EIPS/eip-2612#specification[relevant EIP section]. CAUTION: See Security Considerations above."
      },
      "renounceOwnership()": {
        "details": "Leaves the contract without owner. It will not be possible to call `onlyOwner` functions. Can only be called by the current owner. NOTE: Renouncing ownership will leave the contract without an owner, thereby disabling any functionality that is only available to the owner."
      },
      "setDelegate(address)": {
        "details": "Only the owner/admin of the OApp can call this function.Provides the ability for a delegate to set configs, on behalf of the OApp, directly on the Endpoint contract.",
        "params": {
          "_delegate": "The address of the delegate to be set."
        }
      },
      "setPeer(uint32,bytes32)": {
        "details": "Only the owner/admin of the OApp can call this function.Indicates that the peer is trusted to send LayerZero messages to this OApp.Set this to bytes32(0) to remove the peer address.Peer is a bytes32 to accommodate non-evm chains.",
        "params": {
          "_eid": "The endpoint ID.",
          "_peer": "The address of the peer to be associated with the corresponding endpoint."
        }
      },
      "symbol()": {
        "details": "Returns the symbol of the token, usually a shorter version of the name."
      },
      "totalSupply()": {
        "details": "See {IERC20-totalSupply}."
      },
      "transfer(address,uint256)": {
        "details": "See {IERC20-transfer}. Requirements: - `to` cannot be the zero address. - the caller must have a balance of at least `value`."
      },
      "transferFrom(address,address,uint256)": {
        "details": "See {IERC20-transferFrom}. Emits an {Approval} event indicating the updated allowance. This is not required by the EIP. See the note at the beginning of {ERC20}. NOTE: Does not update the allowance if the current allowance is the maximum `uint256`. Requirements: - `from` and `to` cannot be the zero address. - `from` must have a balance of at least `value`. - the caller must have allowance for ``from``'s tokens of at least `value`."
      },
      "transferOwnership(address)": {
        "details": "Transfers ownership of the contract to a new account (`newOwner`). Can only be called by the current owner."
      }
    },
    "version": 1
  },
  "userdoc": {
    "kind": "user",
    "methods": {
      "allowInitializePath((uint32,bytes32,uint64))": {
        "notice": "Checks if the path initialization is allowed based on the provided origin."
      },
      "endpoint()": {
        "notice": "Retrieves the LayerZero endpoint associated with the OApp."
      },
      "isComposeMsgSender((uint32,bytes32,uint64),bytes,address)": {
        "notice": "Indicates whether an address is an approved composeMsg sender to the Endpoint."
      },
      "mint(uint32,string,address,bytes)": {
        "notice": "mint sereno token"
      },
      "nextNonce(uint32,bytes32)": {
        "notice": "Retrieves the next nonce for a given source endpoint and sender address."
      },
      "oAppVersion()": {
        "notice": "Retrieves the OApp version information."
      },
      "pause()": {
        "notice": "pause contract"
      },
      "peers(uint32)": {
        "notice": "Retrieves the peer (OApp) associated with a corresponding endpoint."
      },
      "setDelegate(address)": {
        "notice": "Sets the delegate address for the OApp."
      },
      "setPeer(uint32,bytes32)": {
        "notice": "Sets the peer address (OApp instance) for a corresponding endpoint."
      },
      "unpause()": {
        "notice": "unpause contract"
      }
    },
    "version": 1
  },
  "storageLayout": {
    "storage": [
      {
        "astId": 1697,
        "contract": "contracts/Sereno.sol:Sereno",
        "label": "_balances",
        "offset": 0,
        "slot": "0",
        "type": "t_mapping(t_address,t_uint256)"
      },
      {
        "astId": 1703,
        "contract": "contracts/Sereno.sol:Sereno",
        "label": "_allowances",
        "offset": 0,
        "slot": "1",
        "type": "t_mapping(t_address,t_mapping(t_address,t_uint256))"
      },
      {
        "astId": 1705,
        "contract": "contracts/Sereno.sol:Sereno",
        "label": "_totalSupply",
        "offset": 0,
        "slot": "2",
        "type": "t_uint256"
      },
      {
        "astId": 1707,
        "contract": "contracts/Sereno.sol:Sereno",
        "label": "_name",
        "offset": 0,
        "slot": "3",
        "type": "t_string_storage"
      },
      {
        "astId": 1709,
        "contract": "contracts/Sereno.sol:Sereno",
        "label": "_symbol",
        "offset": 0,
        "slot": "4",
        "type": "t_string_storage"
      },
      {
        "astId": 3213,
        "contract": "contracts/Sereno.sol:Sereno",
        "label": "_paused",
        "offset": 0,
        "slot": "5",
        "type": "t_bool"
      },
      {
        "astId": 4288,
        "contract": "contracts/Sereno.sol:Sereno",
        "label": "_nameFallback",
        "offset": 0,
        "slot": "6",
        "type": "t_string_storage"
      },
      {
        "astId": 4290,
        "contract": "contracts/Sereno.sol:Sereno",
        "label": "_versionFallback",
        "offset": 0,
        "slot": "7",
        "type": "t_string_storage"
      },
      {
        "astId": 3150,
        "contract": "contracts/Sereno.sol:Sereno",
        "label": "_nonces",
        "offset": 0,
        "slot": "8",
        "type": "t_mapping(t_address,t_uint256)"
      },
      {
        "astId": 1373,
        "contract": "contracts/Sereno.sol:Sereno",
        "label": "_owner",
        "offset": 0,
        "slot": "9",
        "type": "t_address"
      },
      {
        "astId": 110,
        "contract": "contracts/Sereno.sol:Sereno",
        "label": "peers",
        "offset": 0,
        "slot": "10",
        "type": "t_mapping(t_uint32,t_bytes32)"
      }
    ],
    "types": {
      "t_address": {
        "encoding": "inplace",
        "label": "address",
        "numberOfBytes": "20"
      },
      "t_bool": {
        "encoding": "inplace",
        "label": "bool",
        "numberOfBytes": "1"
      },
      "t_bytes32": {
        "encoding": "inplace",
        "label": "bytes32",
        "numberOfBytes": "32"
      },
      "t_mapping(t_address,t_mapping(t_address,t_uint256))": {
        "encoding": "mapping",
        "key": "t_address",
        "label": "mapping(address => mapping(address => uint256))",
        "numberOfBytes": "32",
        "value": "t_mapping(t_address,t_uint256)"
      },
      "t_mapping(t_address,t_uint256)": {
        "encoding": "mapping",
        "key": "t_address",
        "label": "mapping(address => uint256)",
        "numberOfBytes": "32",
        "value": "t_uint256"
      },
      "t_mapping(t_uint32,t_bytes32)": {
        "encoding": "mapping",
        "key": "t_uint32",
        "label": "mapping(uint32 => bytes32)",
        "numberOfBytes": "32",
        "value": "t_bytes32"
      },
      "t_string_storage": {
        "encoding": "bytes",
        "label": "string",
        "numberOfBytes": "32"
      },
      "t_uint256": {
        "encoding": "inplace",
        "label": "uint256",
        "numberOfBytes": "32"
      },
      "t_uint32": {
        "encoding": "inplace",
        "label": "uint32",
        "numberOfBytes": "4"
      }
    }
  }
}